:100000000C94D4140C949E700C9473700C944870DF
:100010000C941D700C94F26F0C94C76F0C949C6F31
:100020000C94716F0C9450890C949E890C94778970
:100030000C9405150C9405150C9405150C940515D8
:100040000C9405150C9401640C9405150C9405157D
:100050000C9405150C9405150C9439510C947E8361
:100060000C9405150C9435220C9405150C9405156B
:100070000C9405150C9405150C9405150C94051598
:100080000C946B660C9405150C9405150C940515D1
:100090000C9405150C9405150C9405150C94051578
:1000A0000C9405150C9405150C943E660C940515DE
:1000B0000C9405150C9405150C9405150C941166FB
:1000C0000C9405150C9405150C9405150C94051548
:1000D0000C9405150C9405150C9405150C94051538
:1000E0000C9405150A6B1D6B306B356B496B586BA7
:1000F000736B876B956CA16B956CB46B956CB76BE0
:10010000BC6B086C1B6C2D6C396C576C776C117464
:100110001C74227427742C74317436743B74BC7450
:100120004074BC74BC745674427D457D347D387D0A
:100130003E7D7C7D497D4D7D537D577D5B7D617D21
:10014000657D697D7C7D6F7D737D777D787E7D7E2D
:10015000827E8C7E967E0F7FA07EA87EB07EBA7E49
:10016000C47ECE7EDD7EE77E0F7FF17EFB7E057F47
:10017000084AD73B3BCE016E84BCBFFDC12F3D6C0E
:1001800074319ABD56833DDA3D00C77F11BED9E474
:10019000BB4C3E916BAAAABE000000803F05A84C54
:1001A000CDB2D44EB93836A9020C50B99186880820
:1001B0003CA6AAAA2ABE000000803F004E414E493C
:1001C0004E495459494E46CDCCCC3D0AD7233C1715
:1001D000B7D13877CC2B329595E6241FB14F0A0062
:1001E0000020410000C84200401C4620BCBE4CCA52
:1001F0001B0E5AAEC59D744C4556454C494E4700A2
:10020000434F4D4D554E49434154494F4E00445282
:100210005952554E004552524F525300494E464F87
:10022000004543484F0047322F4733206261642026
:10023000706172616D65746572730A003C3C3C20AC
:100240004732380A003C3C3C204732380A005261B1
:10025000697365205A20286265666F726520686F31
:100260006D696E672920746F20003E20656E64738F
:10027000746F70732E656E61626C6528747275653B
:10028000290A003E20686F6D696E67206E6F7420CA
:100290006E65656465642C20736B69700A003E3E70
:1002A0003E204732380A00205A3A200020593A208E
:1002B0000042656420583A20005072696E742074C0
:1002C000696D653A200021021C0215020E0200022F
:1002D000F7016F66660044454255473A004B494C6A
:1002E0004C45442E20004D3131332053006F6B00BC
:1002F000544845524D414C5F50524F544543544928
:100300004F4E004155544F5245504F52545F534445
:100310005F53544154555300454D455247454E4354
:10032000595F50415253455200434153455F4C4938
:100330004748545F4252494748544E45535300542E
:100340004F47474C455F4C494748545300534F462D
:1003500054574152455F504F574552004255494C02
:10036000445F50455243454E54004C4556454C4918
:100370004E475F44415441005A5F50524F4245003E
:100380004155544F4C4556454C005052494E545FD0
:100390004A4F420050524F47524553530041555423
:1003A0004F5245504F52545F54454D5000564F4C9C
:1003B000554D455452494300454550524F4D005309
:1003C000455249414C5F584F4E5F584F4646004694
:1003D00049524D574152455F4E414D453A4D61722C
:1003E0006C696E20312E312E39202847697468756A
:1003F000622920534F555243455F434F44455F5553
:10040000524C3A68747470733A2F2F676974687528
:10041000622E636F6D2F4D61726C696E4669726DED
:10042000776172652F4D61726C696E2050524F5426
:100430004F434F4C5F56455253494F4E3A312E3041
:10044000204D414348494E455F545950453A334445
:10045000205072696E746572204558545255444557
:10046000525F434F554E543A3120555549443A63F3
:10047000656465326132662D343161322D34373432
:10048000382D396231322D63353563363266333675
:100490003766660A002F2F200020540020520041AA
:1004A0006363656C65726174696F6E3A2050000019
:1004B0000000000000000000000000546F6F206684
:1004C00061722066726F6D207265666572656E631B
:1004D0006520706F696E740A00FFFFFF20466C6F25
:1004E000773A2000000136372603FFFFFF3F3C3DEF
:1004F000380EFFFFFF2824221E12FFFFFFFF2CFFF4
:100500000C080907FFFF1A1C18FFFF4108440A07DF
:1005100043206F7574206F662072616E67650A00F4
:10052000536572766F20003A200020536572766F13
:10053000200043290A0061626C656420286D696EA1
:100540002074656D702000436F6C64206578747250
:10055000756465732061726520004E6F206361735E
:1005600065206C696768740A00426564204C657692
:10057000656C696E6720004661696C656420746F04
:1005800020656E61626C6520426564204C6576650D
:100590006C696E670A00426564204C6576656C2064
:1005A000436F7272656374696F6E204D6174726916
:1005B000783A00454550524F4D2064697361626C32
:1005C00065640A003F5A206F7574206F662072615F
:1005D0006E676520282D323020746F203230290A52
:1005E000003A200050726F6265205A204F66667391
:1005F000657400617869733A70776D5F7363616CDD
:1006000065207C7374617475735F726573706F6E4F
:1006100073657C0A0041637469766520457874725D
:10062000756465723A2000496E76616C6964206574
:10063000787472756465720A003C3C3C2067636F95
:1006400064655F540A00203A2041465445520A002E
:10065000202063757272656E745F706F7369746960
:100660006F6E3D00203A204245464F52450A002019
:100670002063757272656E745F706F736974696FF1
:100680006E3D003E3E3E2067636F64655F54280008
:100690006F6B00205A3A0020593A0020583A006502
:1006A0006E6473746F7073206869743A20002569F2
:1006B000730025696D202569730025696820256907
:1006C0006D202569730025696420256968202569E6
:1006D0006D202569730025697920256964202569C5
:1006E000682025696D20256973002C20002C2000CE
:1006F000203A2073796E635F706C616E5F706F7308
:100700006974696F6E0A00202063757272656E7479
:100710005F706F736974696F6E3D00656E717565AA
:100720007565696E672022004B494C4C45442E206C
:10073000005072696E7465722073746F70706564B6
:100740002064756520746F206572726F72732E203D
:1007500046697820746865206572726F7220616ED8
:100760006420757365204D39393920746F207265A6
:1007700073746172742E202854656D706572617493
:100780007572652069732072657365742E205365D8
:100790007420697420616674657220726573746177
:1007A0007274696E67290A004E6F20436865636B37
:1007B00073756D2077697468206C696E65206E753D
:1007C0006D6265722C204C617374204C696E653AC1
:1007D0002000636865636B73756D206D69736D616F
:1007E0007463682C204C617374204C696E653A20E8
:1007F000004C696E65204E756D62657220697320CC
:100800006E6F74204C617374204C696E65204E7558
:100810006D6265722B312C204C617374204C696EB3
:10082000653A20004D3131300020496E76616C69A7
:1008300064206578747275646572200000000000A1
:1008400000000000000000000000164300001643F6
:10085000000016430A20736F66745F656E647374DC
:100860006F705F6D6178203D20000A20736F6674A1
:100870005F656E6473746F705F6D696E203D2000FC
:100880000A20706F736974696F6E5F73686966744C
:10089000203D200020617869733A0A20686F6D65F9
:1008A0005F6F6666736574203D2000466F7220009E
:1008B0003C3C3C20646F5F626C6F636B696E675F8A
:1008C0006D6F76655F746F0A003E3E3E20646F5F19
:1008D000626C6F636B696E675F6D6F76655F746F77
:1008E00000203A2073657475705F666F725F656E85
:1008F0006473746F705F6F725F70726F62655F6D4B
:100900006F76650A00202063757272656E745F7081
:100910006F736974696F6E3D00203A20636C656186
:100920006E5F75705F61667465725F656E64737427
:100930006F705F6F725F70726F62655F6D6F76650B
:100940000A00202063757272656E745F706F736940
:1009500074696F6E3D00646F5F70726F62655F7285
:100960006169736528006465706C6F793A200020B6
:100970003A207365745F70726F62655F6465706C56
:100980006F7965640A00202063757272656E745F0A
:10099000706F736974696F6E3D00203A203C3C3C77
:1009A00020646F5F70726F62655F6D6F76650A00BD
:1009B000202063757272656E745F706F73697469FD
:1009C0006F6E3D00203A203E3E3E20646F5F7072A5
:1009D0006F62655F6D6F76650A00202063757272C5
:1009E000656E745F706F736974696F6E3D007265D8
:1009F0007365745F6265645F6C6576656C0A004858
:100A00006F6D696E67206661696C6564003C3C3C93
:100A100020646F5F686F6D696E675F6D6F766528C4
:100A2000005B00290A002C20002C20003E3E3E20C6
:100A3000646F5F686F6D696E675F6D6F76652800C4
:100A4000205A0020590041424C2041646A75737459
:100A50006D656E742058002028656E61626C656457
:100A6000290A00202864697361626C6564290A00A0
:100A70004C494E454152004175746F2042656420D7
:100A80004C6576656C696E673A2000204E6F7A7A05
:100A90006C65290A0020262041626F7665002026B9
:100AA0002053616D65205A20617300202620426525
:100AB0006C6F77002D4261636B0020285269676874
:100AC0007400205A3A0020593A0050726F62652033
:100AD0004F666673657420583A00534552564F204E
:100AE00050524F42450A0050726F62653A200043EF
:100AF0006F72650A004D616368696E652054797094
:100B0000653A200024F4D43050C38E20C2A240178E
:100B1000828B7011127A910D816CD90AA861E1085B
:100B2000C7586607615143061E4B5D05C145A704C2
:100B30001A411104093D9803713931034036DB0233
:100B400065339102D4305402802E1D02632CEE01D5
:100B5000752AC501B028A001102781018F256401E5
:100B60002B244B01E0223401AC211F018D200D010B
:100B7000801FFC00841EED00971DDF00B81CD20012
:100B8000E61BC600201BBC00641AB200B219A80004
:100B90000A19A0006A189900D117910040178B001C
:100BA000B516840031167E00B31579003A1573002E
:100BB000C7146F0058146A00EE13660088136300B0
:100BC00025135E00C7125B006C125700151254000B
:100BD000C111510070114F0021114B00D610490076
:100BE0008D1047004610440002104200C00F400024
:100BF000800F3E00420F3C00060F3B00CB0E38003A
:100C0000930E37005C0E3500270E3400F30D3200D2
:100C1000C10D3100900D3000600D2E00320D2D0001
:100C2000050D2C00D90C2B00AE0C2900850C2900D9
:100C30005C0C2700350C27000E0C2600E80B240066
:100C4000C40B2400A00B23007D0B23005A0B2100B2
:100C5000390B2100180B2000F80A1F00D90A1E00CA
:100C6000BB0A1E009D0A1D00800A1D00630A1C00AD
:100C7000470A1B002C0A1B00110A1A00F7091A0068
:100C8000DD091900C4091900AB0919009209170000
:100C90007B091800630917004C0916003609160075
:100CA000200916000A091500F5081500E0081400CF
:100CB000CC081400B8081400A4081400900813000D
:100CC0007D0812006B081300580812004608120035
:100CD0003408110023081100120811000108110046
:100CE000F0071000E0071000D0071000C007100048
:100CF000B0070F00A107100091070E0083070F0037
:100D000074070F0065070E0057070E0049070E0015
:100D10003B070D002E070E0020070D0013070D00E6
:100D200006070D00F9060C00ED060D00E0060C00AC
:100D3000D4060C00C8060C00BC060C00B0060C0063
:100D4000A4060B0099060C008D060B0082060B0012
:100D500077060B006C060B0061060A0057060B00B5
:100D60004C060A0042060A0038060A002E060A004F
:100D700024060A001A060A001006090007060A00DF
:100D8000FD050900F4050900EB050900E20509006D
:100D9000D9050900D0050900C7050900BE050900ED
:100DA000B5050800AD050800A50509009C0508006B
:100DB000940508008C050800840508007C050800DF
:100DC000740508006C050700650508005D0507004F
:100DD000560508004E0507004705070040050800B6
:100DE00038050700310507002A050700230507001D
:100DF0001C050600160507000F050700080506007C
:100E000002050700FB040600F5040700EE040600D7
:100E1000E8040600E2040700DB040600D50406002F
:100E2000CF040600C9040600C3040600BD04060082
:100E3000B7040600B1040500AC040600A6040600D1
:100E4000A00405009B04060095040500900406001C
:100E50008A04050085040500800406007A04050064
:100E600075040500700405006B04050066040500A8
:100E7000610405005C0405005704050052040500E8
:100E80004D04050048040500430405003E04040029
:100E90003A04050035040500300404002C04050064
:100EA00027040400230405001E0404001A0404009F
:100EB00016040500110404000D04040009040500D3
:100EC0000404040000040400FC030400F80304000C
:100ED000F4030400F0030400EC030400E80304003E
:100EE000E4030400E0030400DC030400D80304006E
:100EF000D4030400D0030400CC030400C80303009F
:100F0000C503030024F404D9201BC40C5C0E980410
:100F1000C4095F0265077101F405F900FB04B30021
:100F200048048700C10369005803550003034500C6
:100F3000BE023A008402310053022A002902250031
:100F400004022000E4011C00C8011900AF011700D1
:100F50009801140084011300710110006101100058
:100F600051010E0043010D0036010B002B010B0057
:100F700020010B00150109000C0109000301080004
:100F8000FB000800F3000800EB000700E400060087
:100F9000DE000600D8000600D2000600CC000500E6
:100FA000C7000500C2000500BD000400B900040030
:100FB000B5000400B1000400AD000400A900040065
:100FC000A5000300A20003009F0004009B00030093
:100FD00098000300950002009300030090000300B6
:100FE0008D0002008B0003008800020086000200D2
:100FF00084000300810002007F0002007D000200E7
:101000007B000200790002007700010076000200F8
:101010007400020072000100710002006F00020003
:101020006D0001006C0002006A000100690002000E
:101030006700010066000100650001006400020015
:101040006200010061000100600001005F00020019
:101050005D0001005C0001005B0001005A0001001E
:10106000590001005800010057000100560001001E
:10107000550001005400010053000000530001001E
:101080005200010051000100500001004F0001001A
:101090004E0000004E0001004D0001004C00010018
:1010A0004B0000004B0001004A0001004900010014
:1010B0004800000048000100470001004600000011
:1010C0004600010045000000450001004400010009
:1010D0004300000043000100420000004200010004
:1010E0004100000041000100400001003F000000FD
:1010F0003F0001003E0000003E0001003D000000F6
:101100003D0001003C0000003C0000003C000100EC
:101110003B0000003B0001003A0000003A000100E3
:1011200039000000390001003800000038000000DC
:1011300038000100370000003700010036000000D1
:1011400036000000360001003500000035000000C8
:1011500035000100340000003400000034000100BC
:1011600033000000330000003300010032000000B3
:1011700032000000320001003100000031000000A8
:10118000310001003000000030000000300001009C
:101190002F0000002F0000002F0000002F00010092
:1011A0002E0000002E0000002E0001002D00000087
:1011B0002D0000002D0000002D0001002C0000007B
:1011C0002C0000002C0000002C0001002B0000006F
:1011D0002B0000002B0000002B0001002A00000063
:1011E0002A0000002A0000002A0001002900000057
:1011F000290000002900000029000000290001004A
:10120000280000002800000028000000280000003E
:101210002800010027000000270000002700000030
:101220002700000027000100260000002600000023
:101230002600000026000000260001002500000016
:10124000250000002500000025000000250000000A
:1012500025000100240000002400000024000000FC
:1012600024000000240001002300000023000000EF
:1012700023000000230000002300000023000000E2
:1012800023000100220000002200000022000000D4
:1012900022000000220000002200010021000000C6
:1012A00021000000210000002100000021000000BA
:1012B00021000000210001002000000020000000AB
:1012C000200000002000000020000000200000009E
:1012D00020000000200001001F0000001F0000008F
:1012E0001F0000001F0000001F0000001F00000082
:1012F0001F0001001E0000001E0000001E00000074
:101300001E0000003930000033250000871900005E
:10131000B00F0000DB080000BD04000074020000F4
:101320003F01000050726F746563746564205069FA
:101330006E0A0020573A00205A3A0020423A002014
:10134000436F756E7420413A0020453A00205A3AA6
:101350000020593A00583A003A004361703A0020A0
:101360005A00205900580020204D61783A20002072
:101370005A00205900580020204D696E3A20004F35
:101380006E20004F666600536F667420656E64734E
:10139000746F70733A200020643A0020693A00208C
:1013A000703A00496E76616C696420657874727574
:1013B0006465720A00526573656E643A2000207499
:1013C0006F6F206C6F6E6720657874727573696FCC
:1013D0006E2070726576656E7465640A0020636FB6
:1013E0006C6420657874727573696F6E20707265B5
:1013F00076656E7465640A00627573793A2070616F
:101400007573656420666F7220696E7075740A006A
:10141000627573793A2070617573656420666F72C6
:1014200020757365720A00627573793A2070726F65
:1014300063657373696E670A004B494C4C45442ED3
:1014400020004B494C4C20636175736564206279C0
:1014500020746F6F206D75636820696E61637469B5
:1014600076652074696D65202D2063757272656ED6
:101470007420636F6D6D616E643A200020746F6F2D
:10148000206C6F6E6720657874727573696F6E205B
:1014900070726576656E7465640A0020636F6C64B3
:1014A00020657874727573696F6E207072657665E9
:1014B0006E7465640A003C3C3C207365745F61781F
:1014C00069735F69735F61745F686F6D6528002081
:1014D0003A200A00202063757272656E745F706F27
:1014E000736974696F6E3D005D203D20003E206889
:1014F0006F6D655F6F66667365745B003E207A7022
:10150000726F62655F7A6F6666736574203D200056
:101510002A2A2A205A20484F4D45442057495448EA
:101520002050524F424520285A5F4D494E5F50523D
:101530004F42455F555345535F5A5F4D494E5F4596
:101540004E4453544F505F50494E29202A2A2A0AAC
:10155000003E3E3E207365745F617869735F697316
:101560005F61745F686F6D6528000000484200008D
:10157000484200000041000000005761726E696E31
:10158000673A20486F6D696E672042756D70204420
:10159000697669736F72203C20310A0002020400F0
:1015A00000A0400000A040000000400000164300E2
:1015B000001643000016433C3C3C20686F6D65619B
:1015C0007869732800203A203E2041465445522035
:1015D0007365745F617869735F69735F61745F6875
:1015E0006F6D650A00202063757272656E745F709E
:1015F0006F736974696F6E3D00486F6D65203220AE
:10160000536C6F773A0A004D6F76652041776179A8
:101610003A0A00486F6D65203120466173743A0ABA
:10162000003E3E3E20686F6D656178697328004812
:10163000617264636F6465642044656661756C748F
:101640002053657474696E6773204C6F61646564C0
:101650000A00F4010000F4010000640000001027FB
:101660000000000048430000484300000041000023
:10167000C841295C2043295C204300004844000005
:10168000484320204D393036003A0A0020286D6D3D
:10169000290020204D3931340020590020580053B2
:1016A000656E736F726C65737320686F6D696E67BA
:1016B000207468726573686F6C643A0A0020543055
:1016C00020450020590020580053746570706572E1
:1016D000206472697665722063757272656E743A01
:1016E0000A0020204D383531205A005A2D50726F93
:1016F0006265204F666673657400204400204900CF
:1017000020204D33303120500050494420736574FF
:1017100074696E67733A0A0020204D3432302053CA
:10172000004175746F20426564204C6576656C6974
:101730006E673A0A00205A0020590020204D3230AE
:1017400036205800486F6D65206F66667365743A81
:101750000A00204500205A0020590020580020543B
:101760000020530020204D32303520510020453CD0
:101770006D61785F655F6A65726B3E0020583C6DF5
:1017800061785F785F6A65726B3E20593C6D617865
:101790005F795F6A65726B3E205A3C6D61785F7A53
:1017A0005F6A65726B3E00416476616E6365643AA0
:1017B00020513C6D696E5F7365676D656E745F7413
:1017C000696D655F75733E20533C6D696E5F66653C
:1017D0006564726174653E20543C6D696E5F74721D
:1017E0006176656C5F66656564726174653E002054
:1017F000540020520020204D3230342050004163EC
:1018000063656C65726174696F6E2028756E6974AA
:10181000732F7332293A20503C7072696E745F6185
:101820006363656C3E20523C726574726163745FE1
:10183000616363656C3E20543C74726176656C5FD5
:10184000616363656C3E0A00204500205A00205900
:101850000020204D3230312058004D6178696D757F
:101860006D20416363656C65726174696F6E2028D9
:10187000756E6974732F7332293A0A00204500206F
:101880005A0020590020204D3230332058004D613D
:1018900078696D756D206665656472617465732025
:1018A00028756E6974732F73293A0A002045002049
:1018B0005A0020590020204D3932205800537465B9
:1018C00070732070657220756E69743A0A0020206A
:1018D0004D3230302044300A0020204D323030204C
:1018E00044002044697361626C65640A0046696C57
:1018F000616D656E742073657474696E67733A0008
:101900002020473231202020203B0070012C019004
:10191000012701B0012201C0011D01F001180110D1
:1019200002130130020E016002090190020401C09D
:1019300002FF000003FA004003F5008003F000D02E
:1019400003EB002004E6007004E100E004DC00404A
:1019500005D700C005D2004006CD00D006C80080E3
:1019600007C3003008BE00F008B900C009B400B0D9
:101970000AAF00B00BAA00D00CA500000EA00050CA
:101980000F9B00C01096005012910000148C00C0F4
:10199000158700B0178200B0197D00D01B780000B9
:1019A0001E730040206E0090226900F02464004005
:1019B000275F0090295A00E02B5500102E50002080
:1019C000304B0010324600E033410090353C0010AF
:1019D00037370070383200A0392D00B03A2800A007
:1019E0003B2300603C1E00103D1900903D14001088
:1019F0003E0F00703E0A00C03E0500003F00004060
:101A00003FFBFF803FF6FFC03FF1FF453400453309
:101A1000004532004531004530005A32005932004D
:101A20005832005A00590058006265640A002C20A0
:101A300073797374656D2073746F707065642120A1
:101A40004865617465725F49443A2000453120540D
:101A50004845524D414C2052554E41574159005432
:101A60006865726D616C2052756E617761790045B1
:101A7000312048656174696E67206661696C6564D0
:101A80000048656174696E67206661696C65640011
:101A90004531204572723A204D415854454D500011
:101AA0004D415854454D50207472696767657265A1
:101AB00064004531204572723A204D494E54454DDF
:101AC00050004D494E54454D50207472696767650A
:101AD00072656400202F0020403A00271A251A233F
:101AE0001A201A1D1A1A1A171A141A111A0E1A0B7A
:101AF0001A206472697665722063757272656E74FD
:101B00003A2000747275650066616C73650020741C
:101B1000656D70657261747572652070726577614C
:101B2000726E207472696767657265643A2000207E
:101B30007072657761726E20666C616720636C6598
:101B4000617265640A0020686F6D696E6720736555
:101B50006E73697469766974793A200044726976A3
:101B60006572207265676973746572733A006F7489
:101B700009006F747077090073326761090073326E
:101B8000676209006F6C6109006F6C620900737411
:101B9000737409006673616374697665090073671D
:101BA0005F726573756C7409007374616C6C677532
:101BB00061726409004452565354415455530053C2
:101BC00074616C6C67756172642074687273002D47
:101BD00073746172740900687973746572657369EE
:101BE000730A2D656E640900626C616E6B20746906
:101BF0006D65006F66662074696D6509004F54203D
:101C00007072657761726E206861730A6265656ED5
:101C100020747269676765726564004F5420707242
:101C2000657761726E005B6D6D2F735D0900707773
:101C30006D0A7468726573686F6C640900747374FC
:101C4000657009006D737465707309007374656164
:101C50006C746843686F70007673656E7365090015
:101C600050574D207363616C6509004353206163D5
:101C70007475616C0900486F6C64206375727265DD
:101C80006E740052756E2063757272656E74004DCD
:101C900041582063757272656E7400524D53206313
:101CA000757272656E740053657420637572726527
:101CB0006E7400456E61626C6564090009003C3C0D
:101CC0003C204732390A00203A2047323920636FDE
:101CD000727265637465642058595A0A0020206343
:101CE000757272656E745F706F736974696F6E3D43
:101CF00000202044697363726570616E63793A00F5
:101D000020204D61747269783A005A2066726F6DB6
:101D10002050726F62653A00203A204732392075B0
:101D20006E636F727265637465642058595A0A0055
:101D3000202063757272656E745F706F7369746969
:101D40006F6E3D000A0A426564204C6576656C2022
:101D5000436F7272656374696F6E204D617472694E
:101D6000783A00202B000A436F72726563746564D1
:101D700020426564204865696768742076732E2068
:101D800042656420546F706F6C6F67793A0A002067
:101D90002B000A4265642048656967687420546FA7
:101DA000706F6772617068793A0A2020202B2D2DA0
:101DB0002D204241434B202D2D2B0A2020207C201A
:101DC000202020202020202020207C0A204C207C45
:101DD00020202020282B29202020207C20520A206F
:101DE00045207C20202020202020202020207C2016
:101DF000490A2046207C20282D29204E20282B29E6
:101E0000207C20470A2054207C20202020202020D5
:101E1000202020207C20480A2020207C20202020F8
:101E2000282D29202020207C20540A2020207C20BE
:101E3000202020202020202020207C0A2020204F2D
:101E40002D2D2046524F4E54202D2D2B0A20283068
:101E50002C30290A004D65616E206F662073616D1C
:101E6000706C656420706F696E74733A2000206432
:101E70003A200020623A200045716E20636F65664B
:101E800066696369656E74733A20613A2000203A8E
:101E9000203E2070726F62696E6720636F6D706C98
:101EA0006574650A00202063757272656E745F70D8
:101EB0006F736974696F6E3D002028445259525502
:101EC0004E2900473239204175746F2042656420E5
:101ED0004C6576656C696E67003F20284C2C522C4F
:101EE000462C4229206F7574206F6620626F756ED4
:101EF00064732E0A003F50726F626520706F696EC6
:101F000074732028592920697320696D706C61757C
:101F10007369626C652028322D32292E0A003F50E9
:101F2000726F626520706F696E7473202858292063
:101F3000697320696D706C61757369626C652028C6
:101F4000322D32292E0A003F2856296572626F739E
:101F500065206C6576656C20697320696D706C61B5
:101F6000757369626C652028302D34292E0A003C77
:101F70003C3C204732390A003E204175746F2D6C7D
:101F80006576656C206E6F74206E65656465642C83
:101F900020736B69700A00203A203E3E3E20473293
:101FA000390A00202063757272656E745F706F73FA
:101FB0006974696F6E3D002C20002C2000FFFDFC31
:101FC000FAF8F6F4F2F0EEECEAE9E7E5E3E1E0DE58
:101FD000DCDAD9D7D5D4D2D0CFCDCBCAC8C7C5C308
:101FE000C2C0BFBDBCBAB9B7B6B4B3B2B0AFADAC86
:101FF000AAA9A8A6A5A4A2A1A09E9D9C9A999897DB
:1020000095949392908F8E8D8B8A8988878684830E
:102010008281807F7E7D7B7A797877767574737222
:1020200071706F6E6D6C6B6A696867666564636218
:1020300061605F5E5D5C5B5A595858575655545302
:10204000525150504F4E4D4C4B4A4A4948474646D4
:10205000454443424241403F3E3E3D3C3B3B3A3992
:10206000383837363535343332323130302F2E2E42
:102070002D2C2B2B2A2929282727262525242323E5
:1020800022212120201F1E1E1D1C1C1B1B1A19197A
:102090001818171616151514131312121111100F04
:1020A0000F0E0E0D0D0C0C0B0A0A09090808070784
:1020B0000606050504040303020201000046696CDC
:1020C000616D656E7420757365643A2000537461A8
:1020D00074733A20002C204C6F6E67657374206A0D
:1020E0006F623A2000546F74616C2074696D653AB8
:1020F000200053746174733A20002C204661696C8F
:1021000065643A20002C2046696E69736865643AFC
:1021100020005072696E74733A20005374617473B6
:102120003A200025753A2530327500253032753A4F
:10213000253032750025756420253032753A2530FA
:102140003275007C2000207C3062003A00206375EC
:102150007272656E74206465637265617365642074
:10216000746F20006D41290A0020647269766572DF
:10217000206F76657274656D7065726174757265D5
:10218000207761726E696E67212028003A20004432
:102190007269766572206572726F720073686F7211
:1021A0007420746F2067726F756E642028636F6986
:1021B0006C2042290A0073686F727420746F206764
:1021C000726F756E642028636F696C2041290A0064
:1021D0006F76657274656D70657261747572650A8B
:1021E0000020647269766572206572726F72206475
:1021F000657465637465643A0A0074727565006697
:10220000616C736500747275650066616C7365005E
:10221000747275650066616C736500313D2E3138EE
:1022200000303D2E333235002F3331002F33310053
:102230002F333100747275650066616C7365002020
:102240003D20307800203A203C3C3C2072756E5F87
:102250007A5F70726F62650A002020637572726522
:102260006E745F706F736974696F6E3D00204469AE
:102270007363726570616E63793A00326E642050E8
:10228000726F6265205A3A00203A203C3C3C207232
:10229000756E5F7A5F70726F62650A0020206375E9
:1022A0007272656E745F706F736974696F6E3D00F2
:1022B000534C4F572050726F6265206661696C21E4
:1022C0000A003173742050726F6265205A3A002000
:1022D0003A203C3C3C2072756E5F7A5F70726F6290
:1022E000650A00202063757272656E745F706F738B
:1022F0006974696F6E3D00464153542050726F629D
:1023000065206661696C210A00203A203E3E3E202D
:1023100072756E5F7A5F70726F62650A002020636B
:10232000757272656E745F706F736974696F6E3DFC
:10233000003C3C3C2070726F62655F70740A005014
:10234000726F62696E67206661696C65640A00205D
:102350005A3A200020593A200042656420583A2019
:1023600000203A200A00202063757272656E745F47
:10237000706F736974696F6E3D005F72656C617434
:10238000697665290A002C20002C20002C20002CC6
:1023900020003E3E3E2070726F62655F70742800C0
:1023A000000020002300260029002C002F0032000E
:1023B00000010000030106010901000022002500C0
:1023C00028002B002E00310034000201000005011E
:1023D00008010B01050505050705080808080202A4
:1023E00002020A0A080804040404010101010101AF
:1023F00001010303030303030303040707070C0C92
:102400000C0C0C0C0C0C0202020206060606060658
:1024100006060B0B0B0B0B0B0B0B010210202008FD
:10242000081020401020408002010201080402012F
:10243000010204081020408080402010080402019E
:1024400080040201804020100804020108040201F7
:10245000010204081020408001020408102040807E
:102460005072696E7465722068616C7465642E20A8
:102470006B696C6C28292063616C6C6564210A00AF
:102480002020506C616E6E657242756666657242A0
:10249000797465733A20002046726565204D656D3C
:1024A0006F72793A2000436F6D70696C65643A20F1
:1024B0004F637420313320323031380A00207C20C1
:1024C000417574686F723A20286E6F6E652C2064B7
:1024D000656661756C7420636F6E666967290A00B2
:1024E000323031382D30382D303100204C6173744A
:1024F00020557064617465643A2000312E312E39A4
:102500000A004D61726C696E0020536F66747761CA
:1025100072652052657365740A00205761746368A0
:10252000646F672052657365740A002042726F778A
:102530006E206F75742052657365740A00204578AB
:102540007465726E616C2052657365740A00506F19
:1025500077657255700A0073746172740A00000026
:102560002100240027002A002D0030003300010143
:102570000000040107010A0100000A0B02090C0D0A
:102580000E08070304010000000000000000000026
:10259000000000000000000000000000000000003B
:1025A00000000000121110000000000000000000F8
:1025B0000000000000000000000000000000556E58
:1025C0006B6E6F776E20636F6D6D616E643A202263
:1025D00000545249474745524544006F70656E00AC
:1025E0003A20007A5F6D696E00795F6D696E0078E0
:1025F0005F6D696E005265706F7274696E672065F9
:102600006E6473746F70207374617475730A000064
:102610000000010000000100008000555555000039
:1026200000400033333300AAAA2A00499224000054
:10263000002000C7711C0099991900D14517005559
:102640005515003BB113002449120011111100006F
:102650000010000F0F0F00E3380E0043790D00CC7F
:10266000CC0C00C3300C00E8A20B0064210B00AAC4
:10267000AA0A00703D0A009DD80900427B09009219
:10268000240900DCD30800888808001042080000F4
:10269000000800F0C1070087870700755007007128
:1026A0001C07003EEB0600A1BC0600699006006610
:1026B000660600703E06006118060017F4050074F7
:1026C000D105005BB00500B29005006272050055AF
:1026D00055050078390500B81E0500050505004EB2
:1026E000EC040087D40400A1BD040090A7040049B5
:1026F000920400C17D0400EE690400C75604004442
:102700004404005C3204000821040041100400006D
:102710000004003FF00300F8E0030026D20300C3EA
:10272000C30300CCB503003AA803000A9B0300389A
:102730008E0300C08103009F750300D06903005021
:102740005E03001D53030034480300913D03003332
:1027500033030016290300381F03009715030030C8
:102760000C0300030303000BFA020049F10200BA54
:10277000E802005CE002002DD802002DD0020059D2
:10278000C80200B0C0020031B90200DAB10200AAEA
:10279000AA0200A0A30200BC9C0200FA9502005C01
:1027A0008F0200DF88020082820200457C0200273F
:1027B00076020027700200436A02007C640200D0A7
:1027C0005E02003F590200C853020020666972731E
:1027D000740A005A0059005800486F6D6520006562
:1027E00063686F3A004572726F723A0023646566DF
:1027F000696E652044454641554C545F4B6420004A
:1028000023646566696E652044454641554C545FB6
:102810004B69200023646566696E65204445464126
:10282000554C545F4B702000504944204175746FE3
:1028300074756E652066696E6973686564212050E1
:10284000757420746865206C617374204B702C2043
:102850004B6920616E64204B6420636F6E737461FA
:102860006E74732066726F6D2062656C6F7720697D
:102870006E746F20436F6E66696775726174696FFD
:102880006E2E680A00504944204175746F74756E4D
:1028900065206661696C6564212074696D656F757A
:1028A000740A00453120544845524D414C20525540
:1028B0004E4157415900546865726D616C205275E4
:1028C0006E617761790045312048656174696E6792
:1028D000206661696C65640048656174696E672093
:1028E0006661696C656400504944204175746F7479
:1028F000756E65206661696C6564212054656D7034
:102900006572617475726520746F6F20686967689D
:102910000A00204B643A2000204B693A2000204BEB
:10292000703A20000A20436C617373696320504938
:1029300044200A002054753A2000204B753A2000AC
:10294000206D61783A2000206D696E3A2000206485
:102950003A200020626961733A20005049442041C6
:1029600075746F74756E65206661696C656421208D
:10297000426164206578747275646572206E756D4D
:102980006265720A00504944204175746F74756E17
:10299000652073746172740A0007FFFFFFFFFF0078
:1029A000010101010100FFA611241FBECFEFD1E2FA
:1029B000DEBFCDBF00E00CBF12E0A0E0B2E0EEED64
:1029C000F7E601E00BBF02C007900D92A83AB107ED
:1029D000D9F72FE0A8EAB2E001C01D92A338B207F0
:1029E000E1F714E1C4EDD4E100E006C0219701094C
:1029F000802FFE010E94B2B3C33DD10780E00807DB
:102A0000A9F70E9400920C94EDB30C940000809101
:102A10004F0690915006981759F0E92FF0E0E153D6
:102A2000FA4F80819F5F9F779093500690E00895C2
:102A30008FEF9FEF0895CF92DF92EF920F931F9346
:102A4000CF93DF93CDB7DEB760970FB6F894DEBFB4
:102A50000FBECDBFE0900C0DEFE1FDE080859185CC
:102A6000A285B3854481558166817781008111817A
:102A70002281338109831A832B833C834D835E83B8
:102A80006F83788789879A87AB87BC871D861E8668
:102A90001F86188AAE01475F5F4FBE016B5F7F4F95
:102AA000CE0101960E944885CE010D966C010BE483
:102AB00012E02BE23DE0AE01475F5F4FBE016B5F6E
:102AC0007F4F0C970E94773560960FB6F894DEBF63
:102AD0000FBECDBFDF91CF911F910F91EF90DF908F
:102AE000CF900895CF93C62F882351F0813091F471
:102AF00087EB9DE00E94036F6C2F80E39EE007C090
:102B000080E39EE00E94036F6C2F87EB9DE0CF91E6
:102B10000C94036FCF910895FF920F931F93CF935F
:102B2000DF93FC0120812B3319F1D0910505D430BE
:102B3000F8F4F62EBC01C0911B050C2F10E0F0E656
:102B4000CF9FC00111248D579C4F0E94DBB3F80129
:102B5000E758FC4FF082CF5FC43018F4C0931B05D8
:102B600002C010921B05DF5FD093050581E001C014
:102B700080E0DF91CF911F910F91FF900895809198
:102B8000F80C85FF06C069E179E082E499E00E94D3
:102B90003C8A8091830590918405A0918505B09130
:102BA000860580934B0290934C02A0934D02B09304
:102BB0004E028091810590918205909351028093FD
:102BC000500208958091F80C85FF06C061EE78E010
:102BD00085E099E00E943C8A80914B0290914C02E2
:102BE000A0914D02B0914E0280938305909384058D
:102BF000A0938505B0938605809150029091510273
:102C0000909382058093810584E690E09093510231
:102C10008093500208950F931F93CF93DF93CDB706
:102C2000DEB72C970FB6F894DEBF0FBECDBF8091F4
:102C3000F80C85FF06C060EF76E087E097E00E9421
:102C40003C8A8091270D9091280DA091290DB0917B
:102C50002A0D4091230D5091240D6091250D709106
:102C6000260D00911F0D1091200D2091210D309106
:102C7000220D09831A832B833C834D835E836F83EC
:102C8000788789879A87AB87BC87AE01475F5F4F9C
:102C9000BE016B5F7F4FCE0101960E9448852BE2FB
:102CA0003DE0AE01475F5F4FBE016B5F7F4FCE01DE
:102CB00001960E9416442C960FB6F894DEBF0FBE04
:102CC000CDBFDF91CF911F910F910895CF93909138
:102CD00078039817B1F0C82F0E940644C093780378
:102CE000C11109C00E94BB308DE896E00E94398472
:102CF0000E941B4B04C08FE19DE00E943984CF915C
:102D00008ACFCF910895809147039091480300970F
:102D100031F04AE050E060E070E00C94A1A960E07E
:102D200070E0CB010895EFDF97FD0AC0ECDF6F3F45
:102D300071058105910509F02CF4E5DF862F0895D2
:102D400080E008958FEF08958091470390914803A4
:102D5000892B31F0E8DF91E0811103C090E001C0E0
:102D600091E0892F08950F931F93CF93809147038C
:102D700090914803009711F1FC018F01C1912C2F14
:102D80002F7DA9F0C53411F0C536B9F7F8011082CE
:102D900060E070E080914703909148030E944EA844
:102DA000F801C083562F472F382F292F0BC060E022
:102DB00070E0CF911F910F910C944EA850E040E02D
:102DC00030E020E0652F742F832F922FCF911F9139
:102DD0000F91089581548A3108F042C0E82FF0E045
:102DE0004091C2025091C3026091C4027091C50229
:102DF00004C076956795579547958A95D2F7842FA5
:102E0000817040FF2FC0E855FD4F9081992309F153
:102E1000E091FA0CF091FB0CE90FF11D908120ED8F
:102E2000290F2A3098F09E3211F491810CC09D3206
:102E300011F09B3271F4918120ED290F2A3030F08E
:102E40009E3239F4928190539A3018F42E2F9F2F8E
:102E500002C020E090E02093470390934803089538
:102E600080E008950895B6DF882341F081E0209145
:102E7000470330914803232B09F480E008959F9283
:102E8000AF92BF92CF92DF92EF92FF920F931F9378
:102E9000CF93DF9386E5A82E82E0B82E0CEF1CE0DE
:102EA000CFE1DDE09CEEC92E9CE0D92E2DE7E22E8D
:102EB00023E0F22E912CF50181915F018BDF8823B5
:102EC00001F151DFF7012081211104C0209181031C
:102ED000222339F0288139814A815B810E94CAB05E
:102EE0000AC0F3E09F1639F0F6012081318142815A
:102EF00053810E94C9B0F8016083718382839383F8
:102F000009C088819981AA81BB81F801808391835E
:102F1000A283B38393940C5F1F4F2496F4E0CF0EEB
:102F2000D11C2FEFE21AF20A84E09812C4CF86E493
:102F30009ADF8823B9F017DF20E030E0A9010E9472
:102F4000F0B218167CF40FDF20E030E040E752E4E6
:102F50000E94A6B160934B0270934C0280934D0285
:102F600090934E028091F80C83FD28C08091FA0660
:102F7000882321F120912B0D30912C0D40912D0DA6
:102F800050912E0D6091080D7091090D80910A0DE0
:102F900090910B0D0E94C9B020910B0730910C0746
:102FA00040910D0750910E070E94CAB060930B0725
:102FB00070930C0780930D0790930E07DF91CF91CC
:102FC0001F910F91FF90EF90DF90CF90BF90AF9047
:102FD0009F9008952F923F924F925F926F927F92AF
:102FE0008F929F92AF92BF92CF92DF92EF92FF9219
:102FF0000F931F93CF93DF93EB01FC0180809180AF
:10300000A280B380C501B40120E831E541E050E081
:103010000E946CB0C9016DE671E00E949EB36B0125
:103020007C01C501B40120E13EE040E050E00E9497
:103030006CB0CA01B90128E130E040E050E00E94E4
:103040006CB0362E272E062F172F8CE3482E512CCE
:10305000612C712CC501B401A30192010E946CB0D6
:10306000B62EA72ECA01B901A30192010E946CB02D
:10307000CB01C114D104D9F0AF92BF927F936F936B
:103080002F923F92FF92EF92DF92CF9286ED96E0E1
:103090009F938F93DF93CF930E941FAC8DB79EB702
:1030A0000E960FB6F8949EBF0FBE8DBF5CC0E114A4
:1030B000F104C9F0AF92BF927F936F932F923F922A
:1030C000FF92EF9286EC96E09F938F93DF93CF93DE
:1030D0000E941FACEDB7FEB73C960FB6F894FEBF4A
:1030E0000FBEEDBF40C0012BB9F0AF92BF927F93EE
:1030F0006F932F923F928AEB96E09F938F93DF938B
:10310000CF930E941FAC8DB79EB70A960FB6F89466
:103110009EBF0FBE8DBF27C0892BA9F0AF92BF9273
:103120007F936F9382EB96E09F938F93DF93CF9380
:103130000E941FACEDB7FEB738960FB6F894FEBFED
:103140000FBEEDBF10C0AF92BF928EEA96E09F9384
:103150008F93DF93CF930E941FAC0F900F900F902F
:103160000F900F900F90DF91CF911F910F91FF90D3
:10317000EF90DF90CF90BF90AF909F908F907F9017
:103180006F905F904F903F902F9008959091C00066
:1031900095FFFCCF8093C6000895CF93DF93809175
:1031A000F80C85FF0AC0EEEEF9E08491EF0121965C
:1031B000882319F0EBDFFE01F8CF80E087DD80E0A7
:1031C00090E0A0E8BFE38093AE0E9093AF0EA09383
:1031D000B00EB093B10E1092B20E1092B30E1092C8
:1031E000B40E1092B50E1092B60E1092B70E109249
:1031F000B80E1092B90E1092BA0E1092BB0E109229
:10320000BC0E1092BD0E8093BE0E9093BF0EA09385
:10321000C00EB093C10E1092C20E1092C30E109247
:10322000C40E1092C50E1092C60E1092C70E1092C8
:10323000C80E1092C90E1092CA0E1092CB0E1092A8
:10324000CC0E1092CD0E8093CE0E9093CF0EA09305
:10325000D00EB093D10EDF91CF910895AF92BF926F
:10326000CF92DF92EF92FF920F931F93CF93DF9352
:10327000082F10E0E801CC0FDD1FCC0FDD1F9E01F1
:103280002451334F7901CE018B599C4F5C01FE01D3
:10329000EA52FD4F6F012081318142815381FC014F
:1032A00060817181828193810E94CAB0F70160833D
:1032B000718382839383FE01E45CF74F859195913E
:1032C000A591B4919E012F57394F7901F90180835F
:1032D0009183A283B383FE01E85BF74F85919591BB
:1032E000A591B491C85EDD4F88839983AA83BB837F
:1032F0008091F80C85FF37C0F801EA5AFD4F6081D4
:103300008BEA98E00E94EB66F50140815181628171
:10331000738184E998E00E94B566F601408151818D
:103320006281738180E898E00E94B566F701408170
:103330005181628173818AE698E00E94B566488176
:1033400059816A817B8184E598E00E94B5668AE0B4
:10335000DF91CF911F910F91FF90EF90DF90CF9071
:10336000BF90AF9013CFDF91CF911F910F91FF903E
:10337000EF90DF90CF90BF90AF900895EF92FF92C3
:103380000F931F93CF93DF937C0184E56CDDD82FDF
:10339000882311F1C8DCC82F1816D4F4EFEDF7E23A
:1033A00084918F010F5F1F4F882319F0EFDEF80122
:1033B000F7CF8DE4EBDEC7010E94C5896C2FCC0FDF
:1033C000770B89E298E00E94D2668AE0DFDE08C0CF
:1033D00080937703D0E004C080910C0D8093770335
:1033E0008D2FDF91CF911F910F91FF90EF90089556
:1033F000CF92DF92EF92FF920F931F93CF93DF93C1
:1034000080910505843008F01AC101DBAC0197FDFD
:1034100016C1982F2091190D30911A0D8A3019F08C
:103420009D3009F0DBC0109280052115310519F49B
:103430000E940D53E5CFF901E05EFA4F1082109221
:103440001A0D1092190DC0E2D5E0FE018191803273
:1034500011F4EF01FACF8E3409F07EC0209709F401
:103460007BC064E278E0CE010E9405AC8C01892B20
:1034700041F06EE470E0CE0104960E94C7B300975D
:1034800009F4CE014AE050E060E070E001960E944D
:10349000A1A960931C0570931D0580931E05909350
:1034A0001F05C0901B0DD0901C0DE0901D0DF090DD
:1034B0001E0D2FEFC21AD20AE20AF20A6C157D0520
:1034C0008E059F0529F0012B19F481EF97E02AC0A2
:1034D0006AE270E0CE010E94E2B39C01009701F124
:1034E000982F9C1B10E0992339F09150FE01E90FB1
:1034F000F11D80811827F7CF4AE050E060E070E0CE
:10350000C90101960E94A1A9012F10E020E030E03E
:10351000601771078207930779F082ED97E002C088
:1035200088EA97E0DF91CF911F910F91FF90EF9084
:10353000DF90CF900C94338B80911C0590911D05EA
:10354000A0911E05B0911F0580931B0D90931C0D3B
:10355000A0931D0DB0931E0D80910D0281111CC012
:1035600067E470E0CE010E94C7B30097A9F04AE07B
:1035700050E060E070E001960E94A1A964307105FE
:1035800058F4E1E3F7E084918F010F5F1F4F882328
:1035900019F0FCDDF801F7CF63E872E0CE010E947C
:1035A000D2B3892B11F410920E0268E872E0CE01BA
:1035B0000E94D2B3892B21F488E297E00E94F67C26
:1035C0006DE872E0CE010E94D2B3892B11F40E9403
:1035D0000A3161E080E295E09FDA12CF2F353105A4
:1035E0000CF00ECF9C35B9F412DA97FD09CF20917B
:1035F0008005211105CF2091190D30911A0DA901D7
:103600004F5F5F4F50931A0D4093190DF901E05E23
:10361000FA4F8083F5CE9B3319F481E080938005C7
:10362000809180058111ECCEC901019690931A0D0D
:103630008093190DF901E05EFA4F4083E1CEDF91EE
:10364000CF911F910F91FF90EF90DF90CF90089551
:10365000BF92CF92DF92EF92FF920F931F93CF937F
:10366000DF93CDB7DEB76E970FB6F894DEBF0FBE0F
:10367000CDBF6091190570911A056115710551F161
:103680004DE150E0CE0101967C010E94F6AB1E8E0A
:10369000F7018F010E191F09B190BB2021F19AE0AB
:1036A000B912F7CF20C0B7018BE197E00E94FF6607
:1036B00082E26CDD8AE06ADDBB2051F10F5F1F4FB3
:1036C0008091190590911A05080F191F10931A057A
:1036D0000093190581E02091190530911A05232BDB
:1036E000D1F480E018C0F701E00FF11F108260E014
:1036F000C70112DA882371F3EFEDF7E284916F01CD
:103700009FEFC91AD90A882371F240DDF601F6CF7E
:1037100000E010E0DBCF6E960FB6F894DEBF0FBE70
:10372000CDBFDF91CF911F910F91FF90EF90DF9070
:10373000CF90BF9008958F929F92AF92BF92EF92D9
:10374000FF920F931F93CF93DF93CDB7DEB7A09770
:103750000FB6F894DEBF0FBECDBF611571058105B0
:10376000910589F100E0842E912CA12CB12C102F11
:10377000EE24E394F12CEC0EFD1EE00EF11C07FD8F
:10378000FA94A50194010E946CB0F7016083B9011D
:10379000CA010F5F611571058105910541F71F3F52
:1037A00021F1E1E0F0E0EC0FFD1FE10FF11D17FD4D
:1037B000FA9580818A3010F097E301C090E3890F79
:1037C000E5DC1150ECCF80E3A0960FB6F894DEBF95
:1037D0000FBECDBFDF91CF911F910F91FF90EF9062
:1037E000BF90AF909F908F90D1CCA0960FB6F894D9
:1037F000DEBF0FBECDBFDF91CF911F910F91FF9024
:10380000EF90BF90AF909F908F900895CF92DF92EE
:10381000EF92FF926B017C0197FF0AC08DE2B6DC4C
:10382000F094E094D094C094C11CD11CE11CF11C14
:103830004AE0C701B601FF90EF90DF90CF907BCFB9
:103840008F929F92AF92BF92CF92DF92EF92FF92B0
:10385000CF936B017C01B42E20E030E0A9010E94DF
:103860004DAC87FF06C08DE291DCF7FAF094F7F8D3
:10387000F094C0E060E070E080E09FE3CB1541F0A1
:103880002DEC3CEC4CEC5DE30E94B2ACCF5FF6CF8C
:103890009B01AC01C701B6010E94CAB06B017C015B
:1038A0000E9413B24B015C014AE045DFCC2379F161
:1038B000C501B4010E9451AC9B01AC01C701B60126
:1038C0000E94C9B06B017C018EE260DC20E030E038
:1038D00040E251E4C701B6010E94B2AC4B015C0169
:1038E0000E940EB26B01770FEE08FF08C701B60108
:1038F0008DDFC701B6010E9453AC9B01AC01C5012D
:10390000B4010E94C9B06B017C01C150F9F6CF919E
:10391000FF90EF90DF90CF90BF90AF909F908F90EF
:1039200008954F925F926F927F928F929F92AF9283
:10393000BF92CF92DF92EF92FF92CF93DF93E5EFAA
:10394000FAE08491EF012196882319F01FDCFE0133
:10395000F8CFEFEEFAE08491EF012196882319F079
:1039600015DCFE01F8CFE7EEFAE08491EF01219635
:10397000882319F00BDCFE01F8CFEAEDFAE0849120
:10398000EF012196882319F001DCFE01F8CF64E1F4
:1039900070E08AEC9AE00E94D26665E070E086EC06
:1039A0009AE00E94D2664091E80C5091E90C609137
:1039B000EA0C7091EB0C82EC9AE00E94B566EAEB9F
:1039C000FAE08491EF012196882319F0DFDBFE01F4
:1039D000F8CFE4EBFAE08491EF012196882319F007
:1039E000D5DBFE01F8CFC090E80CD090E90CE09058
:1039F000EA0CF090EB0C20E030E0A901C701B60121
:103A00000E944DAC87FF0DC0EBEAFAE08491EF0114
:103A10002196811103C0EBE8FAE020C0B7DBFE017C
:103A2000F5CF20E030E0A901C701B6010E94F0B255
:103A3000181654F4E5E9FAE08491EF012196882301
:103A400051F3A4DBFE01F8CFEEE9FAE08491EF0137
:103A50002196882301F39ADBFE01F8CF8491EF01D0
:103A60002196882319F092DBFE01F8CFE7E7FAE010
:103A70008491EF012196882319F088DBFE01F8CFAD
:103A8000E0E7FAE08491EF012196882319F07EDBCC
:103A9000FE01F8CF80917803882309F483C0E7E51D
:103AA000FAE08491EF012196882319F06FDBFE0183
:103AB000F8CF80E00E94F84420911F0D3091200D36
:103AC0004091210D5091220D0E94C9B02B013C0163
:103AD00081E00E94F8442091230D3091240D409103
:103AE000250D5091260D0E94C9B04B015C0182E06A
:103AF0000E94F8442091270D3091280D4091290D06
:103B000050912A0D0E94C9B06B017C01E6E4FAE0F5
:103B10008491EF012196882319F038DBFE01F8CF5C
:103B200020E030E0A901C301B2010E94F0B21816F2
:103B300014F48BE22BDB42E0C301B20181DEE3E44B
:103B4000FAE08491EF012196882319F01FDBFE0132
:103B5000F8CF20E030E0A901C501B4010E94F0B225
:103B6000181614F48BE212DB42E0C501B40168DEE2
:103B7000E0E4FAE08491EF012196882319F006DB56
:103B8000FE01F8CF20E030E0A901C701B6010E9494
:103B9000F0B2181614F48BE2F9DA42E0C701B6016C
:103BA0004FDE0AC0E3E6FAE08491EF012196882314
:103BB00019F0ECDAFE01F8CF8AE0DF91CF91FF90A7
:103BC000EF90DF90CF90BF90AF909F908F907F90BD
:103BD0006F905F904F90DACA2F923F924F925F9210
:103BE0006F927F928F929F92AF92BF92CF92DF920D
:103BF000EF92FF920F931F93CF93DF93CDB7DEB772
:103C000065970FB6F894DEBF0FBECDBF982E2A0180
:103C10003B01F22E832E8091F80CA92CB12C85FF4C
:103C200048C0F501EA5AFD4F60818CE29AE00E949B
:103C3000EB66B301A20189E29AE00E94B566E6E272
:103C4000FAE084916F019FEFC91AD90A882319F00D
:103C50009DDAF601F6CF20E030E0A901B8018F2D02
:103C6000982D0E944DAC882341F042E0B8018F2D81
:103C7000982DE6DDE3E2FAE012C0F501EE0FFF1F3A
:103C8000EE0FFF1FE659FA4E4591559165917491DB
:103C900081E29AE00E94B5668DE578DAEBCF8491F7
:103CA0006F019FEFC91AD90A882319F06FDAF6015C
:103CB000F6CFF501E752FB4FE491DD24D3941E16B5
:103CC0000CF4D12CEE24E39420E030E0A901C301F0
:103CD000B2010E94F0B218160CF0E12CDE24DD8A4D
:103CE000DD2021F061E0892D0E9472151501220C62
:103CF000331C220C331CF101E15EF24F6F01108284
:103D00001182128213820E940B16F60140825182A8
:103D100062827382E0900C0D20E030E0A901B801CE
:103D20008F2D982D0E944DAC81110AC0F101E659EA
:103D3000FA4E85919591A591B4918C01FA2E8B2E16
:103D4000C801AF2DB82D898B9A8BAB8BBC8B809122
:103D5000270D9091280DA091290DB0912A0D409129
:103D6000230D5091240D6091250D7091260D009129
:103D70001F0D1091200D2091210D3091220D0983EE
:103D80001A832B833C834D835E836F837887898777
:103D90009A87AB87BC871D861E861F86188AAE0150
:103DA000475F5F4FBE016B5F7F4FCE0101960E9460
:103DB0004885CE010D966C018E010F5E1F4F2BE2E0
:103DC0003DE0AE01475F5F4FBE016B5F7F4F0C97D9
:103DD0000E9477350E9406449D89992379F080914D
:103DE0000305882339F01092030560E0892D0E94B5
:103DF000721504C08FEF99E00E94F67C8091F80C58
:103E000085FF0CC0F501EA5AFD4F60818DE09AE014
:103E10000E94EB6689E2BAD98AE0B8D965960FB6F6
:103E2000F894DEBF0FBECDBFDF91CF911F910F91F0
:103E3000FF90EF90DF90CF90BF90AF909F908F90CA
:103E40007F906F905F904F903F902F9008954F928A
:103E50005F926F927F928F929F92AF92BF92CF921A
:103E6000DF92EF92FF920F931F93CF93DF9300D0D7
:103E700000D0CDB7DEB74B0129013A01E982FA82C1
:103E80000B831C83FC0184919F012F5F3F4F3E8376
:103E90002D83882321F07AD9ED81FE81F4CF88E249
:103EA00075D942E0C301B201CBDC49815A816B81F3
:103EB0007C818DEE96E00E94B566B601A5018AEE82
:103EC00096E00E94B56689E261D98114910449F0B7
:103ED000F40184913FEF831A930A8823D1F056D9D5
:103EE000F7CF8AE026960FB6F894DEBF0FBECDBF9F
:103EF000DF91CF911F910F91FF90EF90DF90CF90C6
:103F0000BF90AF909F908F907F906F905F904F90F9
:103F10003DC926960FB6F894DEBF0FBECDBFDF9128
:103F2000CF911F910F91FF90EF90DF90CF90BF90B6
:103F3000AF909F908F907F906F905F904F9008957B
:103F40004F925F926F927F92AF92BF92CF92DF9229
:103F5000EF92FF920F931F93CF93DF93CDB7DEB70E
:103F600062970FB6F894DEBF0FBECDBF69837A8328
:103F70008B839C832D833E834F8358872701380191
:103F8000DA8AC98A80914B0290914C02A0914D022D
:103F9000B0914E0289879A87AB87BC878091F80CD5
:103FA00085FF39C02091F40C3091F50C4091F60C4E
:103FB0005091F70CC801B7010E94CAB05B016C01B7
:103FC0002091F00C3091F10C4091F20C5091F30CD7
:103FD0006D817E818F8198850E94CAB06D877E87B2
:103FE0008F87988B2091EC0C3091ED0C4091EE0C6A
:103FF0005091EF0C69817A818B819C810E94CAB0BB
:104000009B01AC01ED84FE840F85188960E070E0AF
:1040100089EC98E01CDFA989BA89AC901196BC9014
:10402000119712960C91129713961C9120E030E094
:10403000A901B501C8010E944DAC811108C0E2E799
:10404000F5E185919591A591B4915C018D01209147
:10405000270D3091280D4091290D50912A0DC30153
:10406000B2010E94F0B21816A4F4C501D8018093E1
:104070004B0290934C02A0934D02B0934E0240929B
:10408000270D5092280D6092290D70922A0D0E94E2
:104090001B15E989FA89C080D180E280F38020E095
:1040A00030E0A901C701B6010E944DAC811108C0E2
:1040B000C0904702D0904802E0904902F0904A0236
:1040C000C0924B02D0924C02E0924D02F0924E020E
:1040D00089819A81AB81BC8180931F0D9093200DC3
:1040E000A093210DB093220D8D819E81AF81B88563
:1040F0008093230D9093240DA093250DB093260D4E
:104100000E941B152091270D3091280D4091290DFB
:1041100050912A0DC301B2010E944DAC87FF14C01B
:10412000C501D80180934B0290934C02A0934D029D
:10413000B0934E024092270D5092280D6092290DA7
:1041400070922A0D0E941B150E94064489859A854B
:10415000AB85BC8580934B0290934C02A0934D029B
:10416000B0934E028091F80C85FF0CC0E0EBF8E0B4
:1041700084913F019FEF691A790A882319F006D8C4
:10418000F301F6CF62960FB6F894DEBF0FBECDBF37
:10419000DF91CF911F910F91FF90EF90DF90CF9023
:1041A000BF90AF907F906F905F904F900895CF92A7
:1041B000DF92EF92FF920F931F936B01FC01E0805F
:1041C000F18002811381EFE1FDE024813581468198
:1041D00057816081718182819381B2DE1F910F913D
:1041E000FF90EF90DF90CF9008951F93CF93DF93D0
:1041F000CDB7DEB728970FB6F894DEBF0FBECDBFA0
:1042000069837A838B839C832D833E834F83588776
:104210008091F80C85FF06C064EC79E08AED99E0A6
:104220000E943C8ABE016B5F7F4FCE010196BFDFCB
:10423000109103051470109203050E94BB308DE8A5
:1042400096E00E9439848091950690919606A091FF
:104250009706B09198068093270D9093280DA09310
:10426000290DB0932A0D0E940B168091F80C85FF42
:1042700006C06AE979E080EB99E00E943C8A81E01F
:10428000111180E028960FB6F894DEBF0FBECDBFA7
:10429000DF91CF911F9108953F924F925F926F925D
:1042A0007F928F929F92AF92BF92CF92DF92EF92C6
:1042B000FF920F931F93CF93DF93CDB7DEB728976D
:1042C0000FB6F894DEBF0FBECDBF382E8091F80C2C
:1042D00085FF0FC06FE679E086E899E00E943C8A8E
:1042E000632D70E086E699E00E94D2668AE00E9423
:1042F000C6188091160D381609F49EC08091E70CFF
:1043000082FF65C08091F80C85FF0EC040E050E050
:1043100060E271E486E599E00E94B56689E20E9458
:10432000C6188AE00E94C61880E090E0A0E2B1E4DE
:104330008D839E83AF83B8874090E80C5090E90C42
:104340006090EA0C7090EB0C20E030E0A901C30112
:10435000B2010E944DAC87FF0CC0A301920160E046
:1043600070E080E291E40E94C9B06D837E838F8308
:10437000988720E030E046E153E46D817E818F81B3
:1043800098850E94F0B2181644F480E090E0A6E10F
:10439000B3E48D839E83AF83B8872D813E814F81A7
:1043A00058856091270D7091280D8091290D90916D
:1043B0002A0D0E944DAC87FF0AC019821A821B8207
:1043C0001C82BE016F5F7F4FCE010596F0DE4090EC
:1043D0001F0D5090200D6090210D7090220D809047
:1043E000230D9090240DA090250DB090260DE1E0B6
:1043F000E325F0E0EE0FFF1FE65AFD4F608171816B
:1044000083E69FE00E94FB6419821A821B821C8251
:10441000E090270DF090280D0091290D10912A0DA4
:10442000CE0101966C01A5019401C301B20188DDA2
:104430003092160D0E94BF8880E028960FB6F8943F
:10444000DEBF0FBECDBFDF91CF911F910F91FF90C7
:10445000EF90DF90CF90BF90AF909F908F907F9024
:104460006F905F904F903F9008951F920F920FB6FC
:104470000F9211240BB60F922F938F939F93EF936C
:10448000FF9320915006E0914F0681E08E0F8F77C9
:104490009091C600281729F0F0E0E153FA4F90837D
:1044A000E82FE0934F06FF91EF919F918F912F910D
:1044B0000F900BBE0F900FBE0F901F9018952F926C
:1044C0003F924F925F926F927F928F929F92AF92A4
:1044D000BF92CF92DF92EF92FF920F931F93CF93F1
:1044E000DF93CDB7DEB72E970FB6F894DEBF0FBEC1
:1044F000CDBFF8948FEF9FEF909389008093880051
:104500008AE0B82E1E861D86AA24A39478948091F2
:10451000CB059091CC05A091CD05B091CE05892B0E
:104520008A2B8B2B09F0CCC18091680F8823D1F0A6
:104530001092680F8091660F9091670F892B91F010
:1045400010928C051092670F1092660F9091AC0E2E
:104550008091AD0E981731F08091AD0E8F5F8F7006
:104560008093AD0E8091660F9091670F892B09F4AF
:10457000A7C10091C7051091C8052091C9053091C8
:10458000CA058091C3059091C405A091C505B0915D
:10459000C6054091BA0550E060E070E0801B910BC9
:1045A000A20BB30B481759076A077B0710F4DB010E
:1045B000CA01482F800F911FA21FB31F8093C70508
:1045C0009093C805A093C905B093CA058091840053
:1045D000909185008096C090A105D090A205E090B2
:1045E000A305F090A40500919105109192052091EA
:1045F0009305309194050C0D1D1D2E1D3F1D00933C
:10460000A1051093A2052093A3053093A40537FDBF
:104610001CC0889A0091C6021091C7022091C8025E
:104620003091C902C0900F020C2C000CDD08EE087E
:10463000FF080C0D1D1D2E1D3F1D0093C60210937B
:10464000C7022093C8023093C902C090A505D0903C
:10465000A605E090A705F090A8050091950510919A
:10466000960520919705309198050C0D1D1D2E1D66
:104670003F1D0093A5051093A6052093A705309331
:10468000A80537FD1CC08E9A0091CA021091CB027A
:104690002091CC023091CD02C09010020C2C000C65
:1046A000DD08EE08FF080C0D1D1D2E1D3F1D00939B
:1046B000CA021093CB022093CC023093CD02C0905B
:1046C000A905D090AA05E090AB05F090AC0500914B
:1046D000990510919A0520919B0530919C050C0D30
:1046E0001D1D2E1D3F1D0093A9051093AA052093A3
:1046F000AB053093AC0537FD1CC0419A0091CE024A
:104700001091CF022091D0023091D102C0901102BD
:104710000C2C000CDD08EE08FF080C0D1D1D2E1DD5
:104720003F1D0093CE021093CF022093D00230930E
:10473000D102C090AD05D090AE05E090AF05F090ED
:10474000B00500919D0510919E0520919F05309127
:10475000A0050C0D1D1D2E1D3F1D0093AD051093D2
:10476000AE052093AF053093B00537FD1CC0149AF9
:104770000091D2021091D3022091D4023091D5023F
:10478000C09012020C2C000CDD08EE08FF080C0D86
:104790001D1D2E1D3F1D0093D2021093D3022093A6
:1047A000D4023093D50220918400309185002817DF
:1047B0003907C8F30091A1051091A2052091A30526
:1047C0003091A40537FD15C0C0908D05D0908E05A1
:1047D000E0908F05F09090050C191D092E093F09F6
:1047E0000093A1051093A2052093A3053093A4057F
:1047F00088980091A5051091A6052091A7053091F4
:10480000A80537FD15C0C0908D05D0908E05E090AD
:104810008F05F09090050C191D092E093F09009392
:10482000A5051093A6052093A7053093A8058E989B
:104830000091A9051091AA052091AB053091AC0516
:1048400037FD15C0C0908D05D0908E05E0908F0586
:10485000F09090050C191D092E093F090093A90538
:104860001093AA052093AB053093AC0541980091B5
:10487000AD051091AE052091AF053091B00537FD23
:1048800015C0C0908D05D0908E05E0908F05F090FA
:1048900090050C191D092E093F090093AD051093D1
:1048A000AE052093AF053093B0051498415041F008
:1048B000209184003091850028173907C8F38ACEEB
:1048C0008091CB059091CC05A091CD05B091CE05FE
:1048D000892B8A2B8B2B09F0EDC5E091660FF091A7
:1048E000670F309709F45CC78091C7059091C805A0
:1048F000A091C905B091CA054091C3055091C40566
:104900006091C5057091C60584179507A607B7077E
:10491000D0F010928C051092670F1092660F909154
:10492000AC0E8091AD0E981709F43AC78091AD0E88
:104930008F5F8F708093AD0E00EDC02E07E0D02EFC
:10494000E12CF12CE4C34091BF055091C00560916A
:10495000C1057091C205481759076A077B0708F41B
:10496000A4C14090BB055090BC056090BD057090FF
:10497000BE0586A997A9A0ADB1AD481659066A062D
:104980007B0608F076C1411451046104710449F4B6
:104990008091880590918905A0918A05B0918B0539
:1049A00064C1B0E0A981842D352D262DFA81EB81DB
:1049B0007C816D815E814F8198855091DF0C589F7D
:1049C000712D66274091E00C489F700D611D10907D
:1049D000E10C189E600D539F700D611D439F600D8B
:1049E000529F600DF72FE62FF79F512D44279927EF
:1049F000F69F500D411D9B1FE79F500D411D9B1FB2
:104A0000E69F400D911DF42FE92FF79FA12D44271C
:104A10009927F69FA00D411D9B1FE79FA00D411DEB
:104A20009B1FE69F400D911DF42FE92F5527809184
:104A300088053091890520918A05009018050B2A78
:104A400009F483C0409114054F9F51198B0B3B0B08
:104A50002B0B909115059F9F501981093B0B2B0B38
:104A6000A0911605AF9F801931092B0B4E9F50194D
:104A700081093B0B2B0B9E9F801931092B0BAE9F9D
:104A800030192109F79FA12D44279927F69FA00DE2
:104A9000411D9B1FE79FA00D411D9B1FE69F400DE1
:104AA000911DF42FE92F409110054F9F510D8B1F41
:104AB0003B1F2B1F909111059F9F500D811D3B1F88
:104AC0002B1FA0911205AF9F800D311D2B1F4E9FF4
:104AD000500D811D3B1F2B1F9E9F800D311D2B1FD5
:104AE000AE9F300D211DF79FA12D44279927F69FDA
:104AF000A00D411D9B1FE79FA00D411D9B1FE69F21
:104B0000400D911DF42FE92F40910C054F9F511935
:104B10008B0B3B0B2B0B90910D059F9F501981091F
:104B20003B0B2B0BA0910E05AF9F801931092B0B6E
:104B30004E9F501981093B0B2B0B9E9F8019310909
:104B40002B0BAE9F3019210982C0409114054F9F55
:104B5000510D8B1F3B1F2B1F909115059F9F500DD3
:104B6000811D3B1F2B1FA0911605AF9F800D311D8E
:104B70002B1F4E9F500D811D3B1F2B1F9E9F800D95
:104B8000311D2B1FAE9F300D211DF79FA12D4427F6
:104B90009927F69FA00D411D9B1FE79FA00D411D6A
:104BA0009B1FE69F400D911DF42FE92F40911005AA
:104BB0004F9F51198B0B3B0B2B0B909111059F9F16
:104BC000501981093B0B2B0BA0911205AF9F801947
:104BD00031092B0B4E9F501981093B0B2B0B9E9FCC
:104BE000801931092B0BAE9F30192109F79FA12D98
:104BF00044279927F69FA00D411D9B1FE79FA00DFD
:104C0000411D9B1FE69F400D911DF42FE92F409100
:104C10000C054F9F510D8B1F3B1F2B1F90910D05B6
:104C20009F9F500D811D3B1F2B1FA0910E05AF9F15
:104C3000800D311D2B1F4E9F500D811D3B1F2B1FC3
:104C40009E9F800D311D2B1FAE9F300D211D112405
:104C5000A983FA83EB837C836D835E834F8398877C
:104C600090E0932BA0E0B0E0A22B24E033E111E030
:104C700011C082A993A9A4A9B5A9F7CFB695A79504
:104C800097958795110F2C5F3F4F43E120323407F2
:104C900009F466C4F90145915591659174914817DD
:104CA00059076A077B0750F35BC44091B6055091E2
:104CB000B7056091B8057091B905481759076A079B
:104CC0007B0708F0B3C18091B50581111EC0DF01DB
:104CD000AE5BBF4FED90FD900D911C9113971D960B
:104CE0002D913D914D915C9162A973A984A995A9DB
:104CF0000E944164A092B505E091660FF091670FA4
:104D000042A853A864A875A882C18091B10590916A
:104D1000B205A091B305B091B40542AD53AD64ADF9
:104D200075AD84179507A607B70708F06AC1009705
:104D3000A105B10549F4409088055090890560901F
:104D40008A0570908B0563C130E04985482E292F74
:104D50008A2F6A855B859C853090DF0C349C912D71
:104D600022248090E00C849C900D211C1090E10C7A
:104D7000149C200C329E900D211C829E200C389E8B
:104D8000200C692F522D699F312C88249924629D13
:104D9000300C811C931E599F300C811C931E529D18
:104DA000800C911C682D592D699F412D88249924D0
:104DB000629D400D811C931E599F400D811C931EC6
:104DC000529D800C911C682D592D332440908805EC
:104DD0002091890580918A0500901805032A09F41D
:104DE00083C080901405869E3118430A230B830BE1
:104DF00090901505969E30184108230B830B409127
:104E00001605469F40182109830B859E30184108DE
:104E1000230B830B959E40182109830B459F201976
:104E20008109699F412D88249924629D400D811C30
:104E3000931E599F400D811C931E529D800C911C06
:104E4000682D592D80901005869E310C431E231F1E
:104E5000831F90901105969E300C411C231F831FC9
:104E600040911205469F400C211D831F859E300CEA
:104E7000411C231F831F959E400C211D831F459FAE
:104E8000200D811D699F412D88249924629D400D2C
:104E9000811C931E599F400D811C931E529D800CB6
:104EA000911C682D592D80900C05869E3118430A5F
:104EB000230B830B90900D05969E30184108230B11
:104EC000830B40910E05469F40182109830B859E58
:104ED00030184108230B830B959E40182109830B42
:104EE000459F2019810982C080901405869E310C4F
:104EF000431E231F831F90901505969E300C411C66
:104F0000231F831F40911605469F400C211D831FC0
:104F1000859E300C411C231F831F959E400C211D34
:104F2000831F459F200D811D699F412D8824992451
:104F3000629D400D811C931E599F400D811C931E44
:104F4000529D800C911C682D592D80901005869ED5
:104F50003118430A230B830B90901105969E30184D
:104F60004108230B830B40911205469F40182109ED
:104F7000830B859E30184108230B830B959E4018A8
:104F80002109830B459F20198109699F412D8824A0
:104F90009924629D400D811C931E599F400D811CD8
:104FA000931E529D800C911C682D592D80900C05EC
:104FB000869E310C431E231F831F90900D05969EE5
:104FC000300C411C231F831F40910E05469F400C4F
:104FD000211D831F859E300C411C231F831F959E1E
:104FE000400C211D831F459F200D811D11244987E1
:104FF0006A875B879C87512C522A612C712C682A06
:1050000006C0E15BFF4F408051806280738084E086
:1050100093E121E0FC01459155916591749144150E
:1050200055056605770508F4FBC205C38091140297
:1050300090911502A0911602B0911702B7FF5FC0C0
:10504000E95BFF4FC080D180E280F38084E093E190
:1050500021E0FC0145915591659174914C155D05D8
:105060006E057F0550F4F694E794D794C794220F09
:105070000496A3E180329A0761F72093BA0580E293
:10508000C816D104E104F10428F470E2C72ED12C33
:10509000E12CF12C20E2C21AD108E108F108C11478
:1050A00038E0D306E104F10408F433C344E0D49EAD
:1050B000C00111248C5F904FFC01329625913491F0
:1050C0007C2D6627739FA001729F410D561F069489
:1050D000461F561F112460E070E0FC0125913491B9
:1050E000C901A0E0B0E0841B950BA60BB70B809321
:1050F000140290931502A0931602B0931702C09069
:105100001402D0901502E0901602F09017028091E0
:10511000660F9091670F892B09F0C4C10E94C66485
:105120009093670F8093660F892B09F4BBC1E091C0
:10513000660FF091670F808183FF48C0858996894B
:10514000A789B08D418D528D638D748D8C019D0129
:10515000040F151F261F371F0093C6021093C702A6
:105160002093C8023093C902841B950BA60BB70B82
:105170008093CA029093CB02A093CC02B093CD024D
:10518000858D968DA78DB0A18093CE029093CF028E
:10519000A093D002B093D10281A192A1A3A1B4A106
:1051A0008093D2029093D302A093D402B093D502FD
:1051B0009091AC0E8091AD0E981709F4AFCF80910D
:1051C000AD0E8F5F8F708093AD0EA8CF4589568945
:1051D0006789708D418C528C638C748C4415550595
:1051E00066057705B1F44115510561057105A1F01A
:1051F000DF01AA5BBF4F9C9191FB222720F99170A0
:10520000392F3A2581E0321301C080E0291302C012
:1052100004C081E0826001C080E0C58CD68CE78C40
:10522000F0A0C114D104E104F10409F0846080937A
:105230008C051092B1051092B2051092B305109230
:10524000B4051092BB051092BC051092BD051092DA
:10525000BE0585A196A1A7A1B0A58093C305909393
:10526000C405A093C505B093C60500271127980172
:10527000081B190B2A0B3B0B0093AD051093AE05D1
:105280002093AF053093B0050093A9051093AA05AC
:105290002093AB053093AC050093A5051093A605AC
:1052A0002093A7053093A8050093A1051093A205AC
:1052B0002093A3053093A405440F551F661F771F45
:1052C00040939105509392056093930570939405D4
:1052D000440C551C661C771C40929505509296050F
:1052E0006092970570929805CC0CDD1CEE1CFF1C9B
:1052F000C0929905D0929A05E0929B05F0929C0588
:1053000041A152A163A174A1440F551F661F771FCD
:1053100040939D0550939E0560939F057093A00553
:10532000880F991FAA1FBB1F80938D0590938E0530
:10533000A0938F05B09390051092C7051092C805F1
:105340001092C9051092CA0582A593A5A4A5B5A57A
:105350008093BF059093C005A093C105B093C2058B
:1053600086A597A5A0A9B1A98093B6059093B70586
:10537000A093B805B093B90541A5EA5BFF4F5081F2
:105380008091870558130AC08091130290E0242F62
:10539000042E000C330B2817390731F05093870582
:1053A000409313020E9493640E94BF888FEF9FEF87
:1053B000DC018093140290931502A0931602B0931F
:1053C0001702E091660FF091670FDF01DE96ED9016
:1053D000FD900D911C9122A933A944A955A9E55B23
:1053E000FF4F60817181828193810E94416410929C
:1053F000B505E091660FF091670FE55BFF4F4080C8
:1054000051806280738084E093E121E0FC0145914A
:10541000559165917491441555056605770558F4C5
:105420007694679457944794220F049640E253E190
:105430004817590759F72093BA0550E24516510409
:105440006104710428F4F0E24F2E512C612C712C70
:1054500090E2491A5108610871084114A8E05A06FF
:105460006104710408F479C1B4E05B9EC0011124A9
:105470008C5F904FFC01329625913491742D6627F4
:10548000739FA001729F410D561F0694461F561F21
:105490001124FC01C590D490E12CF12CC41AD50A3A
:1054A000E108F108C092CB05D092CC05E092CD0581
:1054B000F092CE058091CB059091CC05A091CD05C1
:1054C000B091CE05AC01BD01009721E0A207B10566
:1054D00020F04FEF5FEF60E070E0841B950BA60BB0
:1054E000B70B8093CB059093CC05A093CD05B093DB
:1054F000CE05F89480918400909185004096BA94EE
:10550000BB2061F0AD85BE85A40FB51FBE87AD87FA
:10551000A817B90710F40C94862202C09E878D87C5
:105520002D853E85309389002093880078942E96AF
:105530000FB6F894DEBF0FBECDBFDF91CF911F91A4
:105540000F91FF90EF90DF90CF90BF90AF909F9022
:105550008F907F906F905F904F903F902F90089525
:105560001093BA0580329105A105B10520F480E2BF
:1055700090E0A0E0B0E08097A109B109811528E092
:105580009207A105B105F0F044E0949F9001112429
:105590002C5F304FF901329645915491EE27859F4B
:1055A000B001849F610D7E1F06946E1F7E1F112423
:1055B000F901C590D490E12CF12CC61AD70AE10864
:1055C000F10821C0AC01BD017695679557954795C7
:1055D000FA01EC7F9F012C5F344FF901C590D49004
:1055E000F9013296459154918770849F9001859F6F
:1055F000300D112413E0369527951A95E1F7C21A5C
:10560000D30AE12CF12C4C0C5D1C6E1C7F1C4092CB
:10561000BB055092BC056092BD057092BE0577CD6A
:105620007694679457944794220F049653E18032FE
:10563000950709F0EFCC2093BA0570E247165104A4
:105640006104710428F4A0E24A2E512C612C712CC3
:1056500050E2451A510861087108411478E0570674
:1056600061047104F8F0A4E05A9EC00111248C5F1B
:10567000904FFC01329625913491B42D6627B39F4B
:10568000A001B29F410D561F0694461F561F1124BC
:10569000FC01C590D490E12CF12CC41AD50AE10884
:1056A000F10822C0D301C201B695A79597958795B9
:1056B000FC01EC7FCF018C5F944FFC01C590D4902E
:1056C000FC01329625913491442D4770429FC001D0
:1056D000439F900D1124F3E096958795FA95E1F795
:1056E000C81AD90AE12CF12C8091B1059091B2052C
:1056F000A091B305B091B4058C0D9D1DAE1DBF1DCD
:105700008093B1059093B205A093B305B093B4050F
:10571000FECCD701C601B695A79597958795FC0154
:10572000EC7FCF018C5F944FFC0125913491FC01FB
:105730003296459154916C2D6770649FC001659FAE
:10574000900D112463E0969587956A95E1F7281BE3
:10575000390BC901A0E0B0E0CACCD301C201B695B3
:10576000A79597958795FC01EC7FCF018C5F944FAF
:10577000FC01C590D490FC01329625913491442DC2
:105780004770429FC001439F900D1124E3E096951E
:105790008795EA95E1F7C81AD90AE12CF12C82CE57
:1057A00080EDC82E87E0D82EE12CF12CB7CC2F92BB
:1057B0003F924F925F926F927F928F929F92AF92A1
:1057C000BF92CF92DF92EF92FF920F931F93CF93EE
:1057D000DF9300D01F92CDB7DEB70E94507F6B01E0
:1057E0007C0180910002882309F47BC080918203B0
:1057F000882309F476C04091510650915206609179
:1058000053067091540697018601041B150B260B55
:10581000370B37FD79C0833051F134F481300CF40B
:1058200060C0EFEDF7E206C0843009F05AC0EFED3A
:10583000F7E23BC084918F010F5F1F4F1B830A83E8
:10584000882329F00E94C618EA81FB81F3CFE7E2A2
:10585000F4E184918F010F5F1F4F1B830A8388231C
:1058600009F43FC00E94C618EA81FB81F2CFEFED38
:10587000F7E284918F010F5F1F4F1B830A838823F8
:1058800029F00E94C618EA81FB81F3CFE0E1F4E140
:1058900084918F010F5F1F4F1B830A83882309F1B7
:1058A0000E94C618EA81FB81F3CF84918F010F5FBC
:1058B0001F4F1B830A83882329F00E94C618EA81A0
:1058C000FB81F3CFE8EFF3E184918F010F5F1F4F6E
:1058D0001B830A83882329F00E94C618EA81FB8172
:1058E000F3CF2091000230E0A8EEB3E00E94BAB0FE
:1058F000C60ED71EE81EF91EC0925106D09252065F
:10590000E0925306F092540680910505843030F4FD
:105910000E94281B811102C00E94F8190E94507F2A
:10592000C090F002D090F102E090F202F090F30209
:10593000C114D104E104F10491F1009160061091C9
:10594000610620916206309163060C0D1D1D2E1D0F
:105950003F1D6B017C01C01AD10AE20AF30AF7FC71
:105960001EC0E5EEF7E284918F010F5F1F4F1B838E
:105970000A83882329F00E94C618EA81FB81F3CFAD
:105980006091FA0C7091FB0C82E494E10E94FF6636
:105990008AE00E94C61889E394E10E94F67CC090D8
:1059A0000102D0900202E0900302F0900402C114C0
:1059B000D104E104F104B1F13091AC0E2091AD0EAF
:1059C000321749F060936006709361068093620617
:1059D0009093630627C000916006109161062091A4
:1059E0006206309163060C0D1D1D2E1D3F1DDC014E
:1059F000CB01801B910BA20BB30BB7FD13C05F9AB9
:105A00008091E70C8E7F8093E70C8A9A8091E70C57
:105A10008D7F8093E70C479A8091E70C8B7F809372
:105A2000E70C129A0E94507F00915C0610915D066F
:105A300020915E0630915F06DC01CB01801B910B4B
:105A4000A20BB30BB7FD2CC00E94507FDC01CB0131
:105A50008C509E4FAF4FBF4F80935C0690935D0676
:105A6000A0935E06B0935F064BE556E060E080E3EE
:105A70009EE00E94236D4AE556E061E087EB9DE0E1
:105A80000E94236D49E556E066E08EE39DE00E94AA
:105A9000236D80917603882319F08AE00E94C6184E
:105AA0009091AC0E8091AD0E981791F0E091AD0EF3
:105AB0001DE5E19FF0011124EA59F84F60818091C2
:105AC000AD0E9091AC0E981729F08F5F8F70F9CFC3
:105AD0006091EE0270E089E00E94517E8091AB06F9
